{
  "contractName": "BlindDate",
  "abi": [
    {
      "inputs": [],
      "stateMutability": "nonpayable",
      "type": "constructor"
    },
    {
      "anonymous": false,
      "inputs": [
        {
          "indexed": true,
          "internalType": "address",
          "name": "owner",
          "type": "address"
        },
        {
          "indexed": true,
          "internalType": "address",
          "name": "spender",
          "type": "address"
        },
        {
          "indexed": false,
          "internalType": "uint256",
          "name": "value",
          "type": "uint256"
        }
      ],
      "name": "Approval",
      "type": "event"
    },
    {
      "anonymous": false,
      "inputs": [
        {
          "indexed": true,
          "internalType": "address",
          "name": "from",
          "type": "address"
        },
        {
          "indexed": true,
          "internalType": "address",
          "name": "to",
          "type": "address"
        },
        {
          "indexed": false,
          "internalType": "uint256",
          "name": "value",
          "type": "uint256"
        }
      ],
      "name": "Transfer",
      "type": "event"
    },
    {
      "anonymous": false,
      "inputs": [
        {
          "components": [
            {
              "internalType": "uint256",
              "name": "id",
              "type": "uint256"
            },
            {
              "internalType": "enum BlindDate.DateStages",
              "name": "state",
              "type": "uint8"
            },
            {
              "internalType": "string[]",
              "name": "messagesList",
              "type": "string[]"
            },
            {
              "internalType": "address[]",
              "name": "messagesListSender",
              "type": "address[]"
            }
          ],
          "indexed": false,
          "internalType": "struct BlindDate.Date",
          "name": "date",
          "type": "tuple"
        }
      ],
      "name": "dateCreated",
      "type": "event"
    },
    {
      "anonymous": false,
      "inputs": [
        {
          "indexed": false,
          "internalType": "address",
          "name": "userAddress",
          "type": "address"
        },
        {
          "indexed": false,
          "internalType": "uint256",
          "name": "count",
          "type": "uint256"
        }
      ],
      "name": "disputeSent",
      "type": "event"
    },
    {
      "anonymous": false,
      "inputs": [
        {
          "components": [
            {
              "internalType": "uint256",
              "name": "id",
              "type": "uint256"
            },
            {
              "internalType": "enum BlindDate.DateStages",
              "name": "state",
              "type": "uint8"
            },
            {
              "internalType": "string[]",
              "name": "messagesList",
              "type": "string[]"
            },
            {
              "internalType": "address[]",
              "name": "messagesListSender",
              "type": "address[]"
            }
          ],
          "indexed": false,
          "internalType": "struct BlindDate.Date",
          "name": "date",
          "type": "tuple"
        }
      ],
      "name": "endDateSent",
      "type": "event"
    },
    {
      "anonymous": false,
      "inputs": [
        {
          "components": [
            {
              "internalType": "uint256",
              "name": "id",
              "type": "uint256"
            },
            {
              "internalType": "enum BlindDate.DateStages",
              "name": "state",
              "type": "uint8"
            },
            {
              "internalType": "string[]",
              "name": "messagesList",
              "type": "string[]"
            },
            {
              "internalType": "address[]",
              "name": "messagesListSender",
              "type": "address[]"
            }
          ],
          "indexed": false,
          "internalType": "struct BlindDate.Date",
          "name": "date",
          "type": "tuple"
        }
      ],
      "name": "messageSent",
      "type": "event"
    },
    {
      "inputs": [
        {
          "internalType": "uint256",
          "name": "",
          "type": "uint256"
        }
      ],
      "name": "Dates",
      "outputs": [
        {
          "internalType": "uint256",
          "name": "id",
          "type": "uint256"
        },
        {
          "internalType": "enum BlindDate.DateStages",
          "name": "state",
          "type": "uint8"
        }
      ],
      "stateMutability": "view",
      "type": "function",
      "constant": true
    },
    {
      "inputs": [],
      "name": "PAUSER_ROLE",
      "outputs": [
        {
          "internalType": "bytes32",
          "name": "",
          "type": "bytes32"
        }
      ],
      "stateMutability": "view",
      "type": "function",
      "constant": true
    },
    {
      "inputs": [
        {
          "internalType": "address",
          "name": "",
          "type": "address"
        }
      ],
      "name": "Profiles",
      "outputs": [
        {
          "internalType": "bool",
          "name": "active",
          "type": "bool"
        },
        {
          "internalType": "string",
          "name": "nftImage",
          "type": "string"
        },
        {
          "internalType": "string",
          "name": "name",
          "type": "string"
        },
        {
          "internalType": "string",
          "name": "ageRange",
          "type": "string"
        },
        {
          "internalType": "enum BlindDate.SexAndPreference",
          "name": "sex",
          "type": "uint8"
        },
        {
          "internalType": "string",
          "name": "location",
          "type": "string"
        },
        {
          "internalType": "enum BlindDate.SexAndPreference",
          "name": "preference",
          "type": "uint8"
        },
        {
          "internalType": "uint256",
          "name": "disputeCount",
          "type": "uint256"
        }
      ],
      "stateMutability": "view",
      "type": "function",
      "constant": true
    },
    {
      "inputs": [
        {
          "internalType": "address",
          "name": "owner",
          "type": "address"
        },
        {
          "internalType": "address",
          "name": "spender",
          "type": "address"
        }
      ],
      "name": "allowance",
      "outputs": [
        {
          "internalType": "uint256",
          "name": "",
          "type": "uint256"
        }
      ],
      "stateMutability": "view",
      "type": "function",
      "constant": true
    },
    {
      "inputs": [
        {
          "internalType": "address",
          "name": "spender",
          "type": "address"
        },
        {
          "internalType": "uint256",
          "name": "amount",
          "type": "uint256"
        }
      ],
      "name": "approve",
      "outputs": [
        {
          "internalType": "bool",
          "name": "",
          "type": "bool"
        }
      ],
      "stateMutability": "nonpayable",
      "type": "function"
    },
    {
      "inputs": [
        {
          "internalType": "address",
          "name": "account",
          "type": "address"
        }
      ],
      "name": "balanceOf",
      "outputs": [
        {
          "internalType": "uint256",
          "name": "",
          "type": "uint256"
        }
      ],
      "stateMutability": "view",
      "type": "function",
      "constant": true
    },
    {
      "inputs": [],
      "name": "decimals",
      "outputs": [
        {
          "internalType": "uint8",
          "name": "",
          "type": "uint8"
        }
      ],
      "stateMutability": "view",
      "type": "function",
      "constant": true
    },
    {
      "inputs": [
        {
          "internalType": "address",
          "name": "spender",
          "type": "address"
        },
        {
          "internalType": "uint256",
          "name": "subtractedValue",
          "type": "uint256"
        }
      ],
      "name": "decreaseAllowance",
      "outputs": [
        {
          "internalType": "bool",
          "name": "",
          "type": "bool"
        }
      ],
      "stateMutability": "nonpayable",
      "type": "function"
    },
    {
      "inputs": [
        {
          "internalType": "address",
          "name": "spender",
          "type": "address"
        },
        {
          "internalType": "uint256",
          "name": "addedValue",
          "type": "uint256"
        }
      ],
      "name": "increaseAllowance",
      "outputs": [
        {
          "internalType": "bool",
          "name": "",
          "type": "bool"
        }
      ],
      "stateMutability": "nonpayable",
      "type": "function"
    },
    {
      "inputs": [],
      "name": "name",
      "outputs": [
        {
          "internalType": "string",
          "name": "",
          "type": "string"
        }
      ],
      "stateMutability": "view",
      "type": "function",
      "constant": true
    },
    {
      "inputs": [],
      "name": "owner",
      "outputs": [
        {
          "internalType": "address",
          "name": "",
          "type": "address"
        }
      ],
      "stateMutability": "view",
      "type": "function",
      "constant": true
    },
    {
      "inputs": [],
      "name": "symbol",
      "outputs": [
        {
          "internalType": "string",
          "name": "",
          "type": "string"
        }
      ],
      "stateMutability": "view",
      "type": "function",
      "constant": true
    },
    {
      "inputs": [],
      "name": "totalSupply",
      "outputs": [
        {
          "internalType": "uint256",
          "name": "",
          "type": "uint256"
        }
      ],
      "stateMutability": "view",
      "type": "function",
      "constant": true
    },
    {
      "inputs": [
        {
          "internalType": "address",
          "name": "recipient",
          "type": "address"
        },
        {
          "internalType": "uint256",
          "name": "amount",
          "type": "uint256"
        }
      ],
      "name": "transfer",
      "outputs": [
        {
          "internalType": "bool",
          "name": "",
          "type": "bool"
        }
      ],
      "stateMutability": "nonpayable",
      "type": "function"
    },
    {
      "inputs": [
        {
          "internalType": "address",
          "name": "sender",
          "type": "address"
        },
        {
          "internalType": "address",
          "name": "recipient",
          "type": "address"
        },
        {
          "internalType": "uint256",
          "name": "amount",
          "type": "uint256"
        }
      ],
      "name": "transferFrom",
      "outputs": [
        {
          "internalType": "bool",
          "name": "",
          "type": "bool"
        }
      ],
      "stateMutability": "nonpayable",
      "type": "function"
    },
    {
      "inputs": [
        {
          "internalType": "string",
          "name": "nftImage",
          "type": "string"
        },
        {
          "internalType": "string",
          "name": "name",
          "type": "string"
        },
        {
          "internalType": "string",
          "name": "ageRange",
          "type": "string"
        },
        {
          "internalType": "enum BlindDate.SexAndPreference",
          "name": "sex",
          "type": "uint8"
        },
        {
          "internalType": "string",
          "name": "location",
          "type": "string"
        },
        {
          "internalType": "enum BlindDate.SexAndPreference",
          "name": "preference",
          "type": "uint8"
        },
        {
          "internalType": "enum BlindDate.Values[]",
          "name": "values",
          "type": "uint8[]"
        }
      ],
      "name": "addProfile",
      "outputs": [],
      "stateMutability": "nonpayable",
      "type": "function"
    },
    {
      "inputs": [
        {
          "internalType": "string",
          "name": "nftImage",
          "type": "string"
        },
        {
          "internalType": "string",
          "name": "name",
          "type": "string"
        },
        {
          "internalType": "string",
          "name": "ageRange",
          "type": "string"
        },
        {
          "internalType": "enum BlindDate.SexAndPreference",
          "name": "sex",
          "type": "uint8"
        },
        {
          "internalType": "string",
          "name": "location",
          "type": "string"
        },
        {
          "internalType": "enum BlindDate.SexAndPreference",
          "name": "preference",
          "type": "uint8"
        },
        {
          "internalType": "enum BlindDate.Values[]",
          "name": "values",
          "type": "uint8[]"
        }
      ],
      "name": "updateProfile",
      "outputs": [],
      "stateMutability": "nonpayable",
      "type": "function"
    },
    {
      "inputs": [
        {
          "internalType": "address",
          "name": "datesAddress",
          "type": "address"
        },
        {
          "internalType": "string",
          "name": "message",
          "type": "string"
        }
      ],
      "name": "addDate",
      "outputs": [],
      "stateMutability": "nonpayable",
      "type": "function"
    },
    {
      "inputs": [
        {
          "internalType": "uint256",
          "name": "dateIdCounterIndex",
          "type": "uint256"
        }
      ],
      "name": "endDate",
      "outputs": [],
      "stateMutability": "nonpayable",
      "type": "function"
    },
    {
      "inputs": [
        {
          "internalType": "address",
          "name": "userAddress",
          "type": "address"
        },
        {
          "internalType": "uint256",
          "name": "dateIdCounterIndex",
          "type": "uint256"
        }
      ],
      "name": "setDispute",
      "outputs": [],
      "stateMutability": "nonpayable",
      "type": "function"
    },
    {
      "inputs": [],
      "name": "deactivateAccount",
      "outputs": [],
      "stateMutability": "nonpayable",
      "type": "function"
    },
    {
      "inputs": [],
      "name": "reactivateAccount",
      "outputs": [],
      "stateMutability": "nonpayable",
      "type": "function"
    },
    {
      "inputs": [
        {
          "internalType": "uint256",
          "name": "dateIndex",
          "type": "uint256"
        },
        {
          "internalType": "string",
          "name": "message",
          "type": "string"
        }
      ],
      "name": "sendMessage",
      "outputs": [],
      "stateMutability": "nonpayable",
      "type": "function"
    },
    {
      "inputs": [
        {
          "internalType": "uint256",
          "name": "dateIndex",
          "type": "uint256"
        }
      ],
      "name": "getDate",
      "outputs": [
        {
          "components": [
            {
              "internalType": "uint256",
              "name": "id",
              "type": "uint256"
            },
            {
              "internalType": "enum BlindDate.DateStages",
              "name": "state",
              "type": "uint8"
            },
            {
              "internalType": "string[]",
              "name": "messagesList",
              "type": "string[]"
            },
            {
              "internalType": "address[]",
              "name": "messagesListSender",
              "type": "address[]"
            }
          ],
          "internalType": "struct BlindDate.Date",
          "name": "",
          "type": "tuple"
        }
      ],
      "stateMutability": "view",
      "type": "function",
      "constant": true
    },
    {
      "inputs": [
        {
          "internalType": "uint256",
          "name": "dateIndex",
          "type": "uint256"
        },
        {
          "internalType": "uint256",
          "name": "messageIndex",
          "type": "uint256"
        }
      ],
      "name": "getMessage",
      "outputs": [
        {
          "internalType": "string",
          "name": "",
          "type": "string"
        },
        {
          "internalType": "address",
          "name": "",
          "type": "address"
        }
      ],
      "stateMutability": "view",
      "type": "function",
      "constant": true
    },
    {
      "inputs": [
        {
          "internalType": "uint256",
          "name": "dateIndex",
          "type": "uint256"
        }
      ],
      "name": "getMessages",
      "outputs": [
        {
          "internalType": "string[]",
          "name": "",
          "type": "string[]"
        },
        {
          "internalType": "address[]",
          "name": "",
          "type": "address[]"
        }
      ],
      "stateMutability": "view",
      "type": "function",
      "constant": true
    },
    {
      "inputs": [
        {
          "internalType": "address",
          "name": "profileAddress",
          "type": "address"
        }
      ],
      "name": "getProfile",
      "outputs": [
        {
          "components": [
            {
              "internalType": "bool",
              "name": "active",
              "type": "bool"
            },
            {
              "internalType": "string",
              "name": "nftImage",
              "type": "string"
            },
            {
              "internalType": "string",
              "name": "name",
              "type": "string"
            },
            {
              "internalType": "string",
              "name": "ageRange",
              "type": "string"
            },
            {
              "internalType": "enum BlindDate.SexAndPreference",
              "name": "sex",
              "type": "uint8"
            },
            {
              "internalType": "string",
              "name": "location",
              "type": "string"
            },
            {
              "internalType": "enum BlindDate.SexAndPreference",
              "name": "preference",
              "type": "uint8"
            },
            {
              "internalType": "enum BlindDate.Values[]",
              "name": "values",
              "type": "uint8[]"
            },
            {
              "internalType": "uint256",
              "name": "disputeCount",
              "type": "uint256"
            },
            {
              "internalType": "uint256[]",
              "name": "dates",
              "type": "uint256[]"
            }
          ],
          "internalType": "struct BlindDate.Profile",
          "name": "",
          "type": "tuple"
        }
      ],
      "stateMutability": "view",
      "type": "function",
      "constant": true
    },
    {
      "inputs": [],
      "name": "joiningFee",
      "outputs": [],
      "stateMutability": "payable",
      "type": "function",
      "payable": true
    }
  ],
  "bytecode": "0x608060405233600560006101000a81548173ffffffffffffffffffffffffffffffffffffffff021916908373ffffffffffffffffffffffffffffffffffffffff160217905550600360065560006007553480156200005c57600080fd5b506040518060400160405280600981526020017f426c696e644461746500000000000000000000000000000000000000000000008152506040518060400160405280600481526020017f42444154000000000000000000000000000000000000000000000000000000008152508160039080519060200190620000e1929190620002ce565b508060049080519060200190620000fa929190620002ce565b5050506200013c33620001126200014260201b60201c565b600a620001209190620004d9565b620186a062000130919062000616565b6200014b60201b60201c565b6200072f565b60006012905090565b600073ffffffffffffffffffffffffffffffffffffffff168273ffffffffffffffffffffffffffffffffffffffff161415620001be576040517f08c379a0000000000000000000000000000000000000000000000000000000008152600401620001b590620003d1565b60405180910390fd5b620001d260008383620002c460201b60201c565b8060026000828254620001e6919062000421565b92505081905550806000808473ffffffffffffffffffffffffffffffffffffffff1673ffffffffffffffffffffffffffffffffffffffff16815260200190815260200160002060008282546200023d919062000421565b925050819055508173ffffffffffffffffffffffffffffffffffffffff16600073ffffffffffffffffffffffffffffffffffffffff167fddf252ad1be2c89b69c2b068fc378daa952ba7f163c4a11628f55a4df523b3ef83604051620002a49190620003f3565b60405180910390a3620002c060008383620002c960201b60201c565b5050565b505050565b505050565b828054620002dc906200068e565b90600052602060002090601f0160209004810192826200030057600085556200034c565b82601f106200031b57805160ff19168380011785556200034c565b828001600101855582156200034c579182015b828111156200034b5782518255916020019190600101906200032e565b5b5090506200035b91906200035f565b5090565b5b808211156200037a57600081600090555060010162000360565b5090565b60006200038d601f8362000410565b91507f45524332303a206d696e7420746f20746865207a65726f2061646472657373006000830152602082019050919050565b620003cb8162000677565b82525050565b60006020820190508181036000830152620003ec816200037e565b9050919050565b60006020820190506200040a6000830184620003c0565b92915050565b600082825260208201905092915050565b60006200042e8262000677565b91506200043b8362000677565b9250827fffffffffffffffffffffffffffffffffffffffffffffffffffffffffffffffff03821115620004735762000472620006c4565b5b828201905092915050565b6000808291508390505b6001851115620004d057808604811115620004a857620004a7620006c4565b5b6001851615620004b85780820291505b8081029050620004c88562000722565b945062000488565b94509492505050565b6000620004e68262000677565b9150620004f38362000681565b9250620005227fffffffffffffffffffffffffffffffffffffffffffffffffffffffffffffffff84846200052a565b905092915050565b6000826200053c57600190506200060f565b816200054c57600090506200060f565b81600181146200056557600281146200057057620005a6565b60019150506200060f565b60ff841115620005855762000584620006c4565b5b8360020a9150848211156200059f576200059e620006c4565b5b506200060f565b5060208310610133831016604e8410600b8410161715620005e05782820a905083811115620005da57620005d9620006c4565b5b6200060f565b620005ef84848460016200047e565b92509050818404811115620006095762000608620006c4565b5b81810290505b9392505050565b6000620006238262000677565b9150620006308362000677565b9250817fffffffffffffffffffffffffffffffffffffffffffffffffffffffffffffffff04831182151516156200066c576200066b620006c4565b5b828202905092915050565b6000819050919050565b600060ff82169050919050565b60006002820490506001821680620006a757607f821691505b60208210811415620006be57620006bd620006f3565b5b50919050565b7f4e487b7100000000000000000000000000000000000000000000000000000000600052601160045260246000fd5b7f4e487b7100000000000000000000000000000000000000000000000000000000600052602260045260246000fd5b60008160011c9050919050565b614f9a806200073f6000396000f3fe6080604052600436106101b75760003560e01c80636eeeaaa5116100ec578063ae36853d1161008a578063e040e9a011610064578063e040e9a014610666578063e63ab1e91461067d578063eb3737c4146106a8578063f790b1ba146106d1576101b7565b8063ae36853d146105ad578063da0632ad146105eb578063dd62ed3e14610629576101b7565b806395d89b41116100c657806395d89b41146104df578063a457c2d71461050a578063a9059cbb14610547578063aae8b59214610584576101b7565b80636eeeaaa51461046d57806370a08231146104775780638da5cb5b146104b4576101b7565b806339509351116101595780635bbf11b2116101335780635bbf11b2146103db57806365840810146103f25780636cc826c71461041b5780636ea43a6f14610444576101b7565b8063395093511461033157806345ffb23c1461036e5780634cac5b4b146103b2576101b7565b806318160ddd1161019557806318160ddd1461026157806323b872dd1461028c5780632b57298b146102c9578063313ce56714610306576101b7565b806306fdde03146101bc578063095ea7b3146101e75780630f53a47014610224575b600080fd5b3480156101c857600080fd5b506101d161070f565b6040516101de91906146a1565b60405180910390f35b3480156101f357600080fd5b5061020e600480360381019061020991906137ba565b6107a1565b60405161021b91906145d1565b60405180910390f35b34801561023057600080fd5b5061024b600480360381019061024691906136b2565b6107bf565b60405161025891906148d7565b60405180910390f35b34801561026d57600080fd5b50610276610c9f565b60405161028391906148f9565b60405180910390f35b34801561029857600080fd5b506102b360048036038101906102ae9190613717565b610ca9565b6040516102c091906145d1565b60405180910390f35b3480156102d557600080fd5b506102f060048036038101906102eb919061390c565b610da1565b6040516102fd9190614893565b60405180910390f35b34801561031257600080fd5b5061031b610fc6565b604051610328919061493d565b60405180910390f35b34801561033d57600080fd5b50610358600480360381019061035391906137ba565b610fcf565b60405161036591906145d1565b60405180910390f35b34801561037a57600080fd5b50610395600480360381019061039091906136b2565b61107b565b6040516103a99897969594939291906145ec565b60405180910390f35b3480156103be57600080fd5b506103d960048036038101906103d4919061390c565b61130a565b005b3480156103e757600080fd5b506103f0611451565b005b3480156103fe57600080fd5b50610419600480360381019061041491906137ba565b61158d565b005b34801561042757600080fd5b50610442600480360381019061043d9190613766565b61175e565b005b34801561045057600080fd5b5061046b600480360381019061046691906137f6565b611bee565b005b610475611fdf565b005b34801561048357600080fd5b5061049e600480360381019061049991906136b2565b611ff6565b6040516104ab91906148f9565b60405180910390f35b3480156104c057600080fd5b506104c961203e565b6040516104d69190614556565b60405180910390f35b3480156104eb57600080fd5b506104f4612064565b60405161050191906146a1565b60405180910390f35b34801561051657600080fd5b50610531600480360381019061052c91906137ba565b6120f6565b60405161053e91906145d1565b60405180910390f35b34801561055357600080fd5b5061056e600480360381019061056991906137ba565b6121e1565b60405161057b91906145d1565b60405180910390f35b34801561059057600080fd5b506105ab60048036038101906105a69190613935565b6121ff565b005b3480156105b957600080fd5b506105d460048036038101906105cf919061390c565b612558565b6040516105e292919061459a565b60405180910390f35b3480156105f757600080fd5b50610612600480360381019061060d9190613989565b6126eb565b6040516106209291906146c3565b60405180910390f35b34801561063557600080fd5b50610650600480360381019061064b91906136db565b612857565b60405161065d91906148f9565b60405180910390f35b34801561067257600080fd5b5061067b6128de565b005b34801561068957600080fd5b5061069261293b565b60405161069f9190614686565b60405180910390f35b3480156106b457600080fd5b506106cf60048036038101906106ca91906137f6565b61295f565b005b3480156106dd57600080fd5b506106f860048036038101906106f3919061390c565b612c34565b604051610706929190614914565b60405180910390f35b60606003805461071e90614d24565b80601f016020809104026020016040519081016040528092919081815260200182805461074a90614d24565b80156107975780601f1061076c57610100808354040283529160200191610797565b820191906000526020600020905b81548152906001019060200180831161077a57829003601f168201915b5050505050905090565b60006107b56107ae612c65565b8484612c6d565b6001905092915050565b6107c7613121565b600860008373ffffffffffffffffffffffffffffffffffffffff1673ffffffffffffffffffffffffffffffffffffffff168152602001908152602001600020604051806101400160405290816000820160009054906101000a900460ff1615151515815260200160018201805461083d90614d24565b80601f016020809104026020016040519081016040528092919081815260200182805461086990614d24565b80156108b65780601f1061088b576101008083540402835291602001916108b6565b820191906000526020600020905b81548152906001019060200180831161089957829003601f168201915b505050505081526020016002820180546108cf90614d24565b80601f01602080910402602001604051908101604052809291908181526020018280546108fb90614d24565b80156109485780601f1061091d57610100808354040283529160200191610948565b820191906000526020600020905b81548152906001019060200180831161092b57829003601f168201915b5050505050815260200160038201805461096190614d24565b80601f016020809104026020016040519081016040528092919081815260200182805461098d90614d24565b80156109da5780601f106109af576101008083540402835291602001916109da565b820191906000526020600020905b8154815290600101906020018083116109bd57829003601f168201915b505050505081526020016004820160009054906101000a900460ff166002811115610a2e577f4e487b7100000000000000000000000000000000000000000000000000000000600052602160045260246000fd5b6002811115610a66577f4e487b7100000000000000000000000000000000000000000000000000000000600052602160045260246000fd5b8152602001600582018054610a7a90614d24565b80601f0160208091040260200160405190810160405280929190818152602001828054610aa690614d24565b8015610af35780601f10610ac857610100808354040283529160200191610af3565b820191906000526020600020905b815481529060010190602001808311610ad657829003601f168201915b505050505081526020016006820160009054906101000a900460ff166002811115610b47577f4e487b7100000000000000000000000000000000000000000000000000000000600052602160045260246000fd5b6002811115610b7f577f4e487b7100000000000000000000000000000000000000000000000000000000600052602160045260246000fd5b815260200160078201805480602002602001604051908101604052809291908181526020018280548015610c2d57602002820191906000526020600020906000905b82829054906101000a900460ff166004811115610c07577f4e487b7100000000000000000000000000000000000000000000000000000000600052602160045260246000fd5b81526020019060010190602082600001049283019260010382029150808411610bc15790505b505050505081526020016008820154815260200160098201805480602002602001604051908101604052809291908181526020018280548015610c8f57602002820191906000526020600020905b815481526020019060010190808311610c7b575b5050505050815250509050919050565b6000600254905090565b6000610cb6848484612e38565b6000600160008673ffffffffffffffffffffffffffffffffffffffff1673ffffffffffffffffffffffffffffffffffffffff1681526020019081526020016000206000610d01612c65565b73ffffffffffffffffffffffffffffffffffffffff1673ffffffffffffffffffffffffffffffffffffffff16815260200190815260200160002054905082811015610d81576040517f08c379a0000000000000000000000000000000000000000000000000000000008152600401610d78906147b3565b60405180910390fd5b610d9585610d8d612c65565b858403612c6d565b60019150509392505050565b610da96131e6565b60096000838152602001908152602001600020604051806080016040529081600082015481526020016001820160009054906101000a900460ff166001811115610e1c577f4e487b7100000000000000000000000000000000000000000000000000000000600052602160045260246000fd5b6001811115610e54577f4e487b7100000000000000000000000000000000000000000000000000000000600052602160045260246000fd5b815260200160028201805480602002602001604051908101604052809291908181526020016000905b82821015610f29578382906000526020600020018054610e9c90614d24565b80601f0160208091040260200160405190810160405280929190818152602001828054610ec890614d24565b8015610f155780601f10610eea57610100808354040283529160200191610f15565b820191906000526020600020905b815481529060010190602001808311610ef857829003601f168201915b505050505081526020019060010190610e7d565b50505050815260200160038201805480602002602001604051908101604052809291908181526020018280548015610fb657602002820191906000526020600020905b8160009054906101000a900473ffffffffffffffffffffffffffffffffffffffff1673ffffffffffffffffffffffffffffffffffffffff1681526020019060010190808311610f6c575b5050505050815250509050919050565b60006012905090565b6000611071610fdc612c65565b848460016000610fea612c65565b73ffffffffffffffffffffffffffffffffffffffff1673ffffffffffffffffffffffffffffffffffffffff16815260200190815260200160002060008873ffffffffffffffffffffffffffffffffffffffff1673ffffffffffffffffffffffffffffffffffffffff1681526020019081526020016000205461106c9190614b87565b612c6d565b6001905092915050565b60086020528060005260406000206000915090508060000160009054906101000a900460ff16908060010180546110b190614d24565b80601f01602080910402602001604051908101604052809291908181526020018280546110dd90614d24565b801561112a5780601f106110ff5761010080835404028352916020019161112a565b820191906000526020600020905b81548152906001019060200180831161110d57829003601f168201915b50505050509080600201805461113f90614d24565b80601f016020809104026020016040519081016040528092919081815260200182805461116b90614d24565b80156111b85780601f1061118d576101008083540402835291602001916111b8565b820191906000526020600020905b81548152906001019060200180831161119b57829003601f168201915b5050505050908060030180546111cd90614d24565b80601f01602080910402602001604051908101604052809291908181526020018280546111f990614d24565b80156112465780601f1061121b57610100808354040283529160200191611246565b820191906000526020600020905b81548152906001019060200180831161122957829003601f168201915b5050505050908060040160009054906101000a900460ff169080600501805461126e90614d24565b80601f016020809104026020016040519081016040528092919081815260200182805461129a90614d24565b80156112e75780601f106112bc576101008083540402835291602001916112e7565b820191906000526020600020905b8154815290600101906020018083116112ca57829003601f168201915b5050505050908060060160009054906101000a900460ff16908060080154905088565b60011515600860003373ffffffffffffffffffffffffffffffffffffffff1673ffffffffffffffffffffffffffffffffffffffff16815260200190815260200160002060000160009054906101000a900460ff161515146113a0576040517f08c379a000000000000000000000000000000000000000000000000000000000815260040161139790614713565b60405180910390fd5b60016009600083815260200190815260200160002060010160006101000a81548160ff02191690836001811115611400577f4e487b7100000000000000000000000000000000000000000000000000000000600052602160045260246000fd5b02179055507f4d072e9783a53358ce00ac2debbe6d2349f8cd3e07438097e8d2a1bba4e52ab26009600083815260200190815260200160002060405161144691906148b5565b60405180910390a150565b3373ffffffffffffffffffffffffffffffffffffffff16600560009054906101000a900473ffffffffffffffffffffffffffffffffffffffff1673ffffffffffffffffffffffffffffffffffffffff1614806114f15750600654600860003373ffffffffffffffffffffffffffffffffffffffff1673ffffffffffffffffffffffffffffffffffffffff1681526020019081526020016000206008015410155b611530576040517f08c379a000000000000000000000000000000000000000000000000000000000815260040161152790614833565b60405180910390fd5b6001600860003373ffffffffffffffffffffffffffffffffffffffff1673ffffffffffffffffffffffffffffffffffffffff16815260200190815260200160002060000160006101000a81548160ff021916908315150217905550565b60011515600860003373ffffffffffffffffffffffffffffffffffffffff1673ffffffffffffffffffffffffffffffffffffffff16815260200190815260200160002060000160009054906101000a900460ff16151514611623576040517f08c379a000000000000000000000000000000000000000000000000000000000815260040161161a90614713565b60405180910390fd5b8181600161163057600080fd5b600860008573ffffffffffffffffffffffffffffffffffffffff1673ffffffffffffffffffffffffffffffffffffffff168152602001908152602001600020600801600081548092919061168390614da4565b9190505550600654600860008673ffffffffffffffffffffffffffffffffffffffff1673ffffffffffffffffffffffffffffffffffffffff16815260200190815260200160002060080154106116dd576116dc846130b9565b5b7f82db2ec13186f1f22bb17bb654203ac972b3a87a7b7659c74a27964d074677f784600860008773ffffffffffffffffffffffffffffffffffffffff1673ffffffffffffffffffffffffffffffffffffffff16815260200190815260200160002060080154604051611750929190614571565b60405180910390a150505050565b8160011515600860008373ffffffffffffffffffffffffffffffffffffffff1673ffffffffffffffffffffffffffffffffffffffff16815260200190815260200160002060000160009054906101000a900460ff161515146117f5576040517f08c379a00000000000000000000000000000000000000000000000000000000081526004016117ec906147d3565b60405180910390fd5b81608c8151111561183b576040517f08c379a000000000000000000000000000000000000000000000000000000000815260040161183290614773565b60405180910390fd5b60011515600860003373ffffffffffffffffffffffffffffffffffffffff1673ffffffffffffffffffffffffffffffffffffffff16815260200190815260200160002060000160009054906101000a900460ff161515146118d1576040517f08c379a00000000000000000000000000000000000000000000000000000000081526004016118c890614713565b60405180910390fd5b6060806040518060800160405280600754815260200160006001811115611921577f4e487b7100000000000000000000000000000000000000000000000000000000600052602160045260246000fd5b8152602001838152602001828152506009600060075481526020019081526020016000206000820151816000015560208201518160010160006101000a81548160ff021916908360018111156119a0577f4e487b7100000000000000000000000000000000000000000000000000000000600052602160045260246000fd5b021790555060408201518160020190805190602001906119c1929190613246565b5060608201518160030190805190602001906119de9291906132a6565b5090505060096000600754815260200190815260200160002060020185908060018154018082558091505060019003906000526020600020016000909190919091509080519060200190611a33929190613330565b50600960006007548152602001908152602001600020600301339080600181540180825580915050600190039060005260206000200160009091909190916101000a81548173ffffffffffffffffffffffffffffffffffffffff021916908373ffffffffffffffffffffffffffffffffffffffff160217905550600860003373ffffffffffffffffffffffffffffffffffffffff1673ffffffffffffffffffffffffffffffffffffffff1681526020019081526020016000206009016007549080600181540180825580915050600190039060005260206000200160009091909190915055600860008773ffffffffffffffffffffffffffffffffffffffff1673ffffffffffffffffffffffffffffffffffffffff168152602001908152602001600020600901600754908060018154018082558091505060019003906000526020600020016000909190919091505560076000815480929190611b9690614da4565b91905055507f233c1e94291451421afa8e8e01aae0e1416c0d8ea8697e70ff24dea8e4cd3441600960006007548152602001908152602001600020604051611bde91906148b5565b60405180910390a1505050505050565b80600581511115611c34576040517f08c379a0000000000000000000000000000000000000000000000000000000008152600401611c2b906147f3565b60405180910390fd5b604051806101400160405280600860003373ffffffffffffffffffffffffffffffffffffffff1673ffffffffffffffffffffffffffffffffffffffff16815260200190815260200160002060000160009054906101000a900460ff1615158152602001898152602001888152602001878152602001866002811115611ce2577f4e487b7100000000000000000000000000000000000000000000000000000000600052602160045260246000fd5b8152602001858152602001846002811115611d26577f4e487b7100000000000000000000000000000000000000000000000000000000600052602160045260246000fd5b8152602001838152602001600860003373ffffffffffffffffffffffffffffffffffffffff1673ffffffffffffffffffffffffffffffffffffffff168152602001908152602001600020600801548152602001600860003373ffffffffffffffffffffffffffffffffffffffff1673ffffffffffffffffffffffffffffffffffffffff168152602001908152602001600020600901805480602002602001604051908101604052809291908181526020018280548015611e0557602002820191906000526020600020905b815481526020019060010190808311611df1575b5050505050815250600860003373ffffffffffffffffffffffffffffffffffffffff1673ffffffffffffffffffffffffffffffffffffffff16815260200190815260200160002060008201518160000160006101000a81548160ff0219169083151502179055506020820151816001019080519060200190611e88929190613330565b506040820151816002019080519060200190611ea5929190613330565b506060820151816003019080519060200190611ec2929190613330565b5060808201518160040160006101000a81548160ff02191690836002811115611f14577f4e487b7100000000000000000000000000000000000000000000000000000000600052602160045260246000fd5b021790555060a0820151816005019080519060200190611f35929190613330565b5060c08201518160060160006101000a81548160ff02191690836002811115611f87577f4e487b7100000000000000000000000000000000000000000000000000000000600052602160045260246000fd5b021790555060e0820151816007019080519060200190611fa89291906133b6565b506101008201518160080155610120820151816009019080519060200190611fd1929190613492565b509050505050505050505050565b670de0b6b3a7640000341015611ff457600080fd5b565b60008060008373ffffffffffffffffffffffffffffffffffffffff1673ffffffffffffffffffffffffffffffffffffffff168152602001908152602001600020549050919050565b600560009054906101000a900473ffffffffffffffffffffffffffffffffffffffff1681565b60606004805461207390614d24565b80601f016020809104026020016040519081016040528092919081815260200182805461209f90614d24565b80156120ec5780601f106120c1576101008083540402835291602001916120ec565b820191906000526020600020905b8154815290600101906020018083116120cf57829003601f168201915b5050505050905090565b60008060016000612105612c65565b73ffffffffffffffffffffffffffffffffffffffff1673ffffffffffffffffffffffffffffffffffffffff16815260200190815260200160002060008573ffffffffffffffffffffffffffffffffffffffff1673ffffffffffffffffffffffffffffffffffffffff168152602001908152602001600020549050828110156121c2576040517f08c379a00000000000000000000000000000000000000000000000000000000081526004016121b990614873565b60405180910390fd5b6121d66121cd612c65565b85858403612c6d565b600191505092915050565b60006121f56121ee612c65565b8484612e38565b6001905092915050565b816000600860003373ffffffffffffffffffffffffffffffffffffffff1673ffffffffffffffffffffffffffffffffffffffff168152602001908152602001600020600901828154811061227c577f4e487b7100000000000000000000000000000000000000000000000000000000600052603260045260246000fd5b90600052602060002001541180156123275750600060018111156122c9577f4e487b7100000000000000000000000000000000000000000000000000000000600052602160045260246000fd5b6009600083815260200190815260200160002060010160009054906101000a900460ff166001811115612325577f4e487b7100000000000000000000000000000000000000000000000000000000600052602160045260246000fd5b145b612366576040517f08c379a000000000000000000000000000000000000000000000000000000000815260040161235d90614793565b60405180910390fd5b81608c815111156123ac576040517f08c379a00000000000000000000000000000000000000000000000000000000081526004016123a390614773565b60405180910390fd5b60011515600860003373ffffffffffffffffffffffffffffffffffffffff1673ffffffffffffffffffffffffffffffffffffffff16815260200190815260200160002060000160009054906101000a900460ff16151514612442576040517f08c379a000000000000000000000000000000000000000000000000000000000815260040161243990614713565b60405180910390fd5b6009600085815260200190815260200160002060020183908060018154018082558091505060019003906000526020600020016000909190919091509080519060200190612491929190613330565b5060096000858152602001908152602001600020600301339080600181540180825580915050600190039060005260206000200160009091909190916101000a81548173ffffffffffffffffffffffffffffffffffffffff021916908373ffffffffffffffffffffffffffffffffffffffff1602179055507f78b849732dc0d0aa5c2ffa11568a7c2d127d0475855d8ef387cfd36dc5be62066009600086815260200190815260200160002060405161254a91906148b5565b60405180910390a150505050565b606080600960008481526020019081526020016000206002016009600085815260200190815260200160002060030181805480602002602001604051908101604052809291908181526020016000905b828210156126545783829060005260206000200180546125c790614d24565b80601f01602080910402602001604051908101604052809291908181526020018280546125f390614d24565b80156126405780601f1061261557610100808354040283529160200191612640565b820191906000526020600020905b81548152906001019060200180831161262357829003601f168201915b5050505050815260200190600101906125a8565b505050509150808054806020026020016040519081016040528092919081815260200182805480156126db57602002820191906000526020600020905b8160009054906101000a900473ffffffffffffffffffffffffffffffffffffffff1673ffffffffffffffffffffffffffffffffffffffff1681526020019060010190808311612691575b5050505050905091509150915091565b6060600060096000858152602001908152602001600020600201838154811061273d577f4e487b7100000000000000000000000000000000000000000000000000000000600052603260045260246000fd5b90600052602060002001600960008681526020019081526020016000206003018481548110612795577f4e487b7100000000000000000000000000000000000000000000000000000000600052603260045260246000fd5b9060005260206000200160009054906101000a900473ffffffffffffffffffffffffffffffffffffffff168180546127cc90614d24565b80601f01602080910402602001604051908101604052809291908181526020018280546127f890614d24565b80156128455780601f1061281a57610100808354040283529160200191612845565b820191906000526020600020905b81548152906001019060200180831161282857829003601f168201915b50505050509150915091509250929050565b6000600160008473ffffffffffffffffffffffffffffffffffffffff1673ffffffffffffffffffffffffffffffffffffffff16815260200190815260200160002060008373ffffffffffffffffffffffffffffffffffffffff1673ffffffffffffffffffffffffffffffffffffffff16815260200190815260200160002054905092915050565b6000600860003373ffffffffffffffffffffffffffffffffffffffff1673ffffffffffffffffffffffffffffffffffffffff16815260200190815260200160002060000160006101000a81548160ff021916908315150217905550565b7f65d7a28e3265b37a6474929f336521b332c1681b933f6cb9f3376673440d862a81565b806005815111156129a5576040517f08c379a000000000000000000000000000000000000000000000000000000000815260040161299c906147f3565b60405180910390fd5b60606040518061014001604052806001151581526020018a8152602001898152602001888152602001876002811115612a07577f4e487b7100000000000000000000000000000000000000000000000000000000600052602160045260246000fd5b8152602001868152602001856002811115612a4b577f4e487b7100000000000000000000000000000000000000000000000000000000600052602160045260246000fd5b81526020018481526020016000815260200182815250600860003373ffffffffffffffffffffffffffffffffffffffff1673ffffffffffffffffffffffffffffffffffffffff16815260200190815260200160002060008201518160000160006101000a81548160ff0219169083151502179055506020820151816001019080519060200190612adc929190613330565b506040820151816002019080519060200190612af9929190613330565b506060820151816003019080519060200190612b16929190613330565b5060808201518160040160006101000a81548160ff02191690836002811115612b68577f4e487b7100000000000000000000000000000000000000000000000000000000600052602160045260246000fd5b021790555060a0820151816005019080519060200190612b89929190613330565b5060c08201518160060160006101000a81548160ff02191690836002811115612bdb577f4e487b7100000000000000000000000000000000000000000000000000000000600052602160045260246000fd5b021790555060e0820151816007019080519060200190612bfc9291906133b6565b506101008201518160080155610120820151816009019080519060200190612c25929190613492565b50905050505050505050505050565b60096020528060005260406000206000915090508060000154908060010160009054906101000a900460ff16905082565b600033905090565b600073ffffffffffffffffffffffffffffffffffffffff168373ffffffffffffffffffffffffffffffffffffffff161415612cdd576040517f08c379a0000000000000000000000000000000000000000000000000000000008152600401612cd490614853565b60405180910390fd5b600073ffffffffffffffffffffffffffffffffffffffff168273ffffffffffffffffffffffffffffffffffffffff161415612d4d576040517f08c379a0000000000000000000000000000000000000000000000000000000008152600401612d4490614733565b60405180910390fd5b80600160008573ffffffffffffffffffffffffffffffffffffffff1673ffffffffffffffffffffffffffffffffffffffff16815260200190815260200160002060008473ffffffffffffffffffffffffffffffffffffffff1673ffffffffffffffffffffffffffffffffffffffff168152602001908152602001600020819055508173ffffffffffffffffffffffffffffffffffffffff168373ffffffffffffffffffffffffffffffffffffffff167f8c5be1e5ebec7d5bd14f71427d1e84f3dd0314c0f7b2291e5b200ac8c7c3b92583604051612e2b91906148f9565b60405180910390a3505050565b600073ffffffffffffffffffffffffffffffffffffffff168373ffffffffffffffffffffffffffffffffffffffff161415612ea8576040517f08c379a0000000000000000000000000000000000000000000000000000000008152600401612e9f90614813565b60405180910390fd5b600073ffffffffffffffffffffffffffffffffffffffff168273ffffffffffffffffffffffffffffffffffffffff161415612f18576040517f08c379a0000000000000000000000000000000000000000000000000000000008152600401612f0f906146f3565b60405180910390fd5b612f23838383613117565b60008060008573ffffffffffffffffffffffffffffffffffffffff1673ffffffffffffffffffffffffffffffffffffffff16815260200190815260200160002054905081811015612fa9576040517f08c379a0000000000000000000000000000000000000000000000000000000008152600401612fa090614753565b60405180910390fd5b8181036000808673ffffffffffffffffffffffffffffffffffffffff1673ffffffffffffffffffffffffffffffffffffffff16815260200190815260200160002081905550816000808573ffffffffffffffffffffffffffffffffffffffff1673ffffffffffffffffffffffffffffffffffffffff168152602001908152602001600020600082825461303c9190614b87565b925050819055508273ffffffffffffffffffffffffffffffffffffffff168473ffffffffffffffffffffffffffffffffffffffff167fddf252ad1be2c89b69c2b068fc378daa952ba7f163c4a11628f55a4df523b3ef846040516130a091906148f9565b60405180910390a36130b384848461311c565b50505050565b6000600860008373ffffffffffffffffffffffffffffffffffffffff1673ffffffffffffffffffffffffffffffffffffffff16815260200190815260200160002060000160006101000a81548160ff02191690831515021790555050565b505050565b505050565b60405180610140016040528060001515815260200160608152602001606081526020016060815260200160006002811115613185577f4e487b7100000000000000000000000000000000000000000000000000000000600052602160045260246000fd5b815260200160608152602001600060028111156131cb577f4e487b7100000000000000000000000000000000000000000000000000000000600052602160045260246000fd5b81526020016060815260200160008152602001606081525090565b60405180608001604052806000815260200160006001811115613232577f4e487b7100000000000000000000000000000000000000000000000000000000600052602160045260246000fd5b815260200160608152602001606081525090565b828054828255906000526020600020908101928215613295579160200282015b82811115613294578251829080519060200190613284929190613330565b5091602001919060010190613266565b5b5090506132a291906134df565b5090565b82805482825590600052602060002090810192821561331f579160200282015b8281111561331e5782518260006101000a81548173ffffffffffffffffffffffffffffffffffffffff021916908373ffffffffffffffffffffffffffffffffffffffff160217905550916020019190600101906132c6565b5b50905061332c9190613503565b5090565b82805461333c90614d24565b90600052602060002090601f01602090048101928261335e57600085556133a5565b82601f1061337757805160ff19168380011785556133a5565b828001600101855582156133a5579182015b828111156133a4578251825591602001919060010190613389565b5b5090506133b29190613503565b5090565b82805482825590600052602060002090601f016020900481019282156134815791602002820160005b8382111561345257835183826101000a81548160ff02191690836004811115613431577f4e487b7100000000000000000000000000000000000000000000000000000000600052602160045260246000fd5b021790555092602001926001016020816000010492830192600103026133df565b801561347f5782816101000a81549060ff0219169055600101602081600001049283019260010302613452565b505b50905061348e9190613503565b5090565b8280548282559060005260206000209081019282156134ce579160200282015b828111156134cd5782518255916020019190600101906134b2565b5b5090506134db9190613503565b5090565b5b808211156134ff57600081816134f69190613520565b506001016134e0565b5090565b5b8082111561351c576000816000905550600101613504565b5090565b50805461352c90614d24565b6000825580601f1061353e575061355d565b601f01602090049060005260206000209081019061355c9190613503565b5b50565b600061357361356e84614989565b614958565b9050808382526020820190508285602086028201111561359257600080fd5b60005b858110156135c257816135a8888261365e565b845260208401935060208301925050600181019050613595565b5050509392505050565b60006135df6135da846149b5565b614958565b9050828152602081018484840111156135f757600080fd5b613602848285614ce2565b509392505050565b60008135905061361981614f16565b92915050565b600082601f83011261363057600080fd5b8135613640848260208601613560565b91505092915050565b60008135905061365881614f2d565b92915050565b60008135905061366d81614f3d565b92915050565b600082601f83011261368457600080fd5b81356136948482602086016135cc565b91505092915050565b6000813590506136ac81614f4d565b92915050565b6000602082840312156136c457600080fd5b60006136d28482850161360a565b91505092915050565b600080604083850312156136ee57600080fd5b60006136fc8582860161360a565b925050602061370d8582860161360a565b9150509250929050565b60008060006060848603121561372c57600080fd5b600061373a8682870161360a565b935050602061374b8682870161360a565b925050604061375c8682870161369d565b9150509250925092565b6000806040838503121561377957600080fd5b60006137878582860161360a565b925050602083013567ffffffffffffffff8111156137a457600080fd5b6137b085828601613673565b9150509250929050565b600080604083850312156137cd57600080fd5b60006137db8582860161360a565b92505060206137ec8582860161369d565b9150509250929050565b600080600080600080600060e0888a03121561381157600080fd5b600088013567ffffffffffffffff81111561382b57600080fd5b6138378a828b01613673565b975050602088013567ffffffffffffffff81111561385457600080fd5b6138608a828b01613673565b965050604088013567ffffffffffffffff81111561387d57600080fd5b6138898a828b01613673565b955050606061389a8a828b01613649565b945050608088013567ffffffffffffffff8111156138b757600080fd5b6138c38a828b01613673565b93505060a06138d48a828b01613649565b92505060c088013567ffffffffffffffff8111156138f157600080fd5b6138fd8a828b0161361f565b91505092959891949750929550565b60006020828403121561391e57600080fd5b600061392c8482850161369d565b91505092915050565b6000806040838503121561394857600080fd5b60006139568582860161369d565b925050602083013567ffffffffffffffff81111561397357600080fd5b61397f85828601613673565b9150509250929050565b6000806040838503121561399c57600080fd5b60006139aa8582860161369d565b92505060206139bb8582860161369d565b9150509250929050565b60006139d18383613a35565b60208301905092915050565b60006139e98383613df7565b60208301905092915050565b6000613a018383613e06565b905092915050565b6000613a158383613e78565b905092915050565b6000613a298383614529565b60208301905092915050565b613a3e81614c14565b82525050565b613a4d81614c14565b82525050565b6000613a5e82614a64565b613a688185614aff565b9350613a73836149e5565b8060005b83811015613aa4578151613a8b88826139c5565b9750613a9683614ab1565b925050600181019050613a77565b5085935050505092915050565b6000613abc82614a64565b613ac68185614b10565b9350613ad1836149e5565b8060005b83811015613b02578151613ae988826139c5565b9750613af483614ab1565b925050600181019050613ad5565b5085935050505092915050565b6000613b1a82614a6f565b613b248185614aff565b9350613b2f836149f5565b8060005b83811015613b6757613b4482614ea9565b613b4e88826139c5565b9750613b5983614abe565b925050600181019050613b33565b5085935050505092915050565b6000613b7f82614a7a565b613b898185614b54565b9350613b9483614a0a565b8060005b83811015613bc5578151613bac88826139dd565b9750613bb783614acb565b925050600181019050613b98565b5085935050505092915050565b6000613bdd82614a85565b613be78185614b21565b935083602082028501613bf985614a1a565b8060005b85811015613c355784840389528151613c1685826139f5565b9450613c2183614ad8565b925060208a01995050600181019050613bfd565b50829750879550505050505092915050565b6000613c5282614a85565b613c5c8185614b32565b935083602082028501613c6e85614a1a565b8060005b85811015613caa5784840389528151613c8b85826139f5565b9450613c9683614ad8565b925060208a01995050600181019050613c72565b50829750879550505050505092915050565b6000613cc782614a90565b613cd18185614b21565b935083602082028501613ce385614a2a565b8060005b85811015613d1e57848403895281613cff8582613a09565b9450613d0a83614ae5565b925060208a01995050600181019050613ce7565b50829750879550505050505092915050565b6000613d3b82614a9b565b613d458185614b43565b9350613d5083614a3f565b8060005b83811015613d81578151613d688882613a1d565b9750613d7383614af2565b925050600181019050613d54565b5085935050505092915050565b613d9781614c26565b82525050565b613da681614c26565b82525050565b613db581614c32565b82525050565b613dc481614cac565b82525050565b613dd381614cac565b82525050565b613de281614cbe565b82525050565b613df181614cbe565b82525050565b613e0081614cd0565b82525050565b6000613e1182614aa6565b613e1b8185614b65565b9350613e2b818560208601614cf1565b613e3481614ebc565b840191505092915050565b6000613e4a82614aa6565b613e548185614b76565b9350613e64818560208601614cf1565b613e6d81614ebc565b840191505092915050565b60008154613e8581614d24565b613e8f8186614b65565b94506001821660008114613eaa5760018114613ebc57613eef565b60ff1983168652602086019350613eef565b613ec585614a4f565b60005b83811015613ee757815481890152600182019150602081019050613ec8565b808801955050505b50505092915050565b6000613f05602383614b76565b91507f45524332303a207472616e7366657220746f20746865207a65726f206164647260008301527f65737300000000000000000000000000000000000000000000000000000000006020830152604082019050919050565b6000613f6b600b83614b76565b91507f6e6f74206163746976652e0000000000000000000000000000000000000000006000830152602082019050919050565b6000613fab602283614b76565b91507f45524332303a20617070726f766520746f20746865207a65726f20616464726560008301527f73730000000000000000000000000000000000000000000000000000000000006020830152604082019050919050565b6000614011602683614b76565b91507f45524332303a207472616e7366657220616d6f756e742065786365656473206260008301527f616c616e636500000000000000000000000000000000000000000000000000006020830152604082019050919050565b6000614077600983614b76565b91507f31343020636861727300000000000000000000000000000000000000000000006000830152602082019050919050565b60006140b7600e83614b76565b91507f6e6f7420617574686f72697a65640000000000000000000000000000000000006000830152602082019050919050565b60006140f7602883614b76565b91507f45524332303a207472616e7366657220616d6f756e742065786365656473206160008301527f6c6c6f77616e63650000000000000000000000000000000000000000000000006020830152604082019050919050565b600061415d601083614b76565b91507f6e6f20636f6e7461637420666f756e64000000000000000000000000000000006000830152602082019050919050565b600061419d601083614b76565b91507f696e636f72726563742076616c756573000000000000000000000000000000006000830152602082019050919050565b60006141dd602583614b76565b91507f45524332303a207472616e736665722066726f6d20746865207a65726f20616460008301527f64726573730000000000000000000000000000000000000000000000000000006020830152604082019050919050565b6000614243600f83614b76565b91507f6e6f7420617574686f72697a65642e00000000000000000000000000000000006000830152602082019050919050565b6000614283602483614b76565b91507f45524332303a20617070726f76652066726f6d20746865207a65726f2061646460008301527f72657373000000000000000000000000000000000000000000000000000000006020830152604082019050919050565b60006142e9602583614b76565b91507f45524332303a2064656372656173656420616c6c6f77616e63652062656c6f7760008301527f207a65726f0000000000000000000000000000000000000000000000000000006020830152604082019050919050565b600060808301600083015161435a6000860182614529565b50602083015161436d6020860182613dbb565b50604083015184820360408601526143858282613bd2565b9150506060830151848203606086015261439f8282613a53565b9150508091505092915050565b60006080830160008084015490506143c381614d8a565b6143d06000870182614529565b50600184015490506143e181614d70565b6143ee6020870182613dbb565b506002840185830360408701526144058382613cbc565b92505060038401858303606087015261441e8382613b0f565b925050819250505092915050565b6000610140830160008301516144456000860182613d8e565b506020830151848203602086015261445d8282613e06565b915050604083015184820360408601526144778282613e06565b915050606083015184820360608601526144918282613e06565b91505060808301516144a66080860182613dd9565b5060a083015184820360a08601526144be8282613e06565b91505060c08301516144d360c0860182613dd9565b5060e083015184820360e08601526144eb8282613b74565b915050610100830151614502610100860182614529565b5061012083015184820361012086015261451c8282613d30565b9150508091505092915050565b61453281614c95565b82525050565b61454181614c95565b82525050565b61455081614c9f565b82525050565b600060208201905061456b6000830184613a44565b92915050565b60006040820190506145866000830185613a44565b6145936020830184614538565b9392505050565b600060408201905081810360008301526145b48185613c47565b905081810360208301526145c88184613ab1565b90509392505050565b60006020820190506145e66000830184613d9d565b92915050565b600061010082019050614602600083018b613d9d565b8181036020830152614614818a613e3f565b905081810360408301526146288189613e3f565b9050818103606083015261463c8188613e3f565b905061464b6080830187613de8565b81810360a083015261465d8186613e3f565b905061466c60c0830185613de8565b61467960e0830184614538565b9998505050505050505050565b600060208201905061469b6000830184613dac565b92915050565b600060208201905081810360008301526146bb8184613e3f565b905092915050565b600060408201905081810360008301526146dd8185613e3f565b90506146ec6020830184613a44565b9392505050565b6000602082019050818103600083015261470c81613ef8565b9050919050565b6000602082019050818103600083015261472c81613f5e565b9050919050565b6000602082019050818103600083015261474c81613f9e565b9050919050565b6000602082019050818103600083015261476c81614004565b9050919050565b6000602082019050818103600083015261478c8161406a565b9050919050565b600060208201905081810360008301526147ac816140aa565b9050919050565b600060208201905081810360008301526147cc816140ea565b9050919050565b600060208201905081810360008301526147ec81614150565b9050919050565b6000602082019050818103600083015261480c81614190565b9050919050565b6000602082019050818103600083015261482c816141d0565b9050919050565b6000602082019050818103600083015261484c81614236565b9050919050565b6000602082019050818103600083015261486c81614276565b9050919050565b6000602082019050818103600083015261488c816142dc565b9050919050565b600060208201905081810360008301526148ad8184614342565b905092915050565b600060208201905081810360008301526148cf81846143ac565b905092915050565b600060208201905081810360008301526148f1818461442c565b905092915050565b600060208201905061490e6000830184614538565b92915050565b60006040820190506149296000830185614538565b6149366020830184613dca565b9392505050565b60006020820190506149526000830184614547565b92915050565b6000604051905081810181811067ffffffffffffffff8211171561497f5761497e614e7a565b5b8060405250919050565b600067ffffffffffffffff8211156149a4576149a3614e7a565b5b602082029050602081019050919050565b600067ffffffffffffffff8211156149d0576149cf614e7a565b5b601f19601f8301169050602081019050919050565b6000819050602082019050919050565b60008190508160005260206000209050919050565b6000819050602082019050919050565b6000819050602082019050919050565b60008190508160005260206000209050919050565b6000819050602082019050919050565b60008190508160005260206000209050919050565b600081519050919050565b600081549050919050565b600081519050919050565b600081519050919050565b600081549050919050565b600081519050919050565b600081519050919050565b6000602082019050919050565b6000600182019050919050565b6000602082019050919050565b6000602082019050919050565b6000600182019050919050565b6000602082019050919050565b600082825260208201905092915050565b600082825260208201905092915050565b600082825260208201905092915050565b600082825260208201905092915050565b600082825260208201905092915050565b600082825260208201905092915050565b600082825260208201905092915050565b600082825260208201905092915050565b6000614b9282614c95565b9150614b9d83614c95565b9250827fffffffffffffffffffffffffffffffffffffffffffffffffffffffffffffffff03821115614bd257614bd1614ded565b5b828201905092915050565b600073ffffffffffffffffffffffffffffffffffffffff82169050919050565b600060ff82169050919050565b6000819050919050565b6000614c1f82614c75565b9050919050565b60008115159050919050565b6000819050919050565b6000819050614c4a82614eda565b919050565b6000819050614c5d82614eee565b919050565b6000819050614c7082614f02565b919050565b600073ffffffffffffffffffffffffffffffffffffffff82169050919050565b6000819050919050565b600060ff82169050919050565b6000614cb782614c3c565b9050919050565b6000614cc982614c4f565b9050919050565b6000614cdb82614c62565b9050919050565b82818337600083830152505050565b60005b83811015614d0f578082015181840152602081019050614cf4565b83811115614d1e576000848401525b50505050565b60006002820490506001821680614d3c57607f821691505b60208210811415614d5057614d4f614e4b565b5b50919050565b6000614d69614d6483614ecd565b614bdd565b9050919050565b6000614d83614d7e83614ecd565b614bfd565b9050919050565b6000614d9d614d9883614ecd565b614c0a565b9050919050565b6000614daf82614c95565b91507fffffffffffffffffffffffffffffffffffffffffffffffffffffffffffffffff821415614de257614de1614ded565b5b600182019050919050565b7f4e487b7100000000000000000000000000000000000000000000000000000000600052601160045260246000fd5b7f4e487b7100000000000000000000000000000000000000000000000000000000600052602160045260246000fd5b7f4e487b7100000000000000000000000000000000000000000000000000000000600052602260045260246000fd5b7f4e487b7100000000000000000000000000000000000000000000000000000000600052604160045260246000fd5b6000614eb58254614d56565b9050919050565b6000601f19601f8301169050919050565b60008160001c9050919050565b60028110614eeb57614eea614e1c565b5b50565b60038110614eff57614efe614e1c565b5b50565b60058110614f1357614f12614e1c565b5b50565b614f1f81614c14565b8114614f2a57600080fd5b50565b60038110614f3a57600080fd5b50565b60058110614f4a57600080fd5b50565b614f5681614c95565b8114614f6157600080fd5b5056fea2646970667358221220ffad332119fcace7b5c7a6181e411cd0424f6a770f7f4fc76ebf510cce78ebbd64736f6c63430008000033",
  "immutableReferences": {},
  "source": "// SPDX-License-Identifier: MIT\npragma solidity ^0.8.0;\n\nimport \"@openzeppelin/contracts/token/ERC20/ERC20.sol\"; // contracts@4.3.3\n// import \"@openzeppelin/contracts/security/Pausable.sol\"; // contracts@4.3.3\n// import \"@openzeppelin/contracts/access/AccessControl.sol\"; // contracts@4.3.3\n\n// https://github.com/truffle-box/polygon-box\n\n// 1. Tokenomics: sign up payment and per transaction\n// 2. msgs to IPFS or https://www.arweave.org/\n// 3. NFT Profile Image (IPFS/OpenSea)\n// 4. pay to reactivate contract (funds to disputors)\n// 5. Encrypted messages\n// 6. limit date messages to X 15.\n// 7. Split contracts to reduce size.\n// @custom:security-contact security@example.com\n\n// Pausable, AccessControl,\ncontract BlindDate is ERC20 {\n    bytes32 public constant PAUSER_ROLE = keccak256(\"PAUSER_ROLE\");\n\n    constructor() ERC20(\"BlindDate\", \"BDAT\") {\n        // _setupRole(DEFAULT_ADMIN_ROLE, msg.sender);\n        // _setupRole(PAUSER_ROLE, msg.sender);\n        _mint(msg.sender, 100000 * 10 ** decimals());\n    }\n\n    // TODO!!!!!! FIXME!!!!!!\n    // Change Profile Dates to a mapping.\n    \n    address public owner = msg.sender;\n    uint disputeMaxCount = 3;\n    \n    modifier isOwner (address _address) { \n        require (msg.sender == owner, \"not owner\"); \n        _;\n    }\n    modifier isActive () { \n        require (Profiles[msg.sender].active == true, \"not active.\"); \n        _;\n    }\n    modifier paidEnough(uint _price) { \n        require(msg.value >= _price, \"low balance\"); \n        _;\n    }\n    modifier valuesLength (Values[] memory values) { \n        require(values.length <= 5, \"incorrect values\");\n        _;\n    }\n    modifier messageLength (string memory _message) { \n        require(bytes(_message).length <= 140, \"140 chars\");\n        _;\n    }\n    modifier contactAvailable(address dateAddress) { \n        require(Profiles[dateAddress].active == true, \"no contact found\");\n        _;\n    }\n    modifier dateIsActive(uint dateIndex) {\n        require(Profiles[msg.sender].dates[dateIndex] > 0 && Dates[dateIndex].state == DateStages.active, \"not authorized\");\n        _;\n    }\n    modifier canReactivateAccount() {\n        require(owner == msg.sender || Profiles[msg.sender].disputeCount >= disputeMaxCount, \"not authorized.\");\n        _;\n    }\n    modifier haveDatedUser(address datesAddress, uint dateIdCounterIndex) {\n        require(true);\n        _;\n    }\n    enum DateStages {\n        active,\n        closed\n    }\n    enum SexAndPreference {\n        male,\n        female,\n        both\n    }\n    enum Values {\n        Forgiveness,\n        Friendship,\n        Laughter,\n        Joy,\n        Communication\n    }\n    \n    struct Profile {\n        bool active;\n        string nftImage;\n        string name;\n        string ageRange;\n        SexAndPreference sex;\n        string location; // limit this e.g. 40 chars or change to country.\n        SexAndPreference preference;\n        Values[] values;\n        uint256 disputeCount;\n        uint[] dates; // 2, 4, 10, 8\n    }\n    \n    uint dateIdCounter = 0;\n    \n    struct Date {\n        uint id;\n        DateStages state;\n        string[] messagesList;\n        address[] messagesListSender;\n    }\n    \n    event dateCreated(Date date);\n    event endDateSent(Date date);\n    event messageSent(Date date);\n    event disputeSent(address userAddress, uint count);\n    \n    mapping (address => Profile) public Profiles;\n    \n    mapping (uint => Date) public Dates;\n    \n    function addProfile(\n        string memory nftImage,\n        string memory name,\n        string memory ageRange,\n        SexAndPreference sex,\n        string memory location,\n        SexAndPreference preference,\n        Values[] memory values\n    ) external valuesLength(values) {\n        uint[] memory emptyDateList;\n        Profiles[msg.sender] = Profile({\n            active: true,\n            nftImage: nftImage,\n            name: name,\n            ageRange: ageRange,\n            sex: sex, \n            location: location,\n            preference: preference,\n            values: values,\n            disputeCount: 0,\n            dates: emptyDateList\n        });\n    }\n    \n    function updateProfile(\n        string memory nftImage,\n        string memory name,\n        string memory ageRange,\n        SexAndPreference sex,\n        string memory location,\n        SexAndPreference preference,\n        Values[] memory values\n    ) external valuesLength(values) {\n      \n      Profiles[msg.sender] = Profile({\n            active: Profiles[msg.sender].active,\n            nftImage: nftImage,\n            name: name,\n            ageRange: ageRange,\n            sex: sex, \n            location: location,\n            preference: preference,\n            values: values,\n            disputeCount: Profiles[msg.sender].disputeCount,\n            dates: Profiles[msg.sender].dates\n        });\n    }\n    \n    function addDate(address datesAddress, string memory message) external contactAvailable(datesAddress) messageLength(message) isActive() {\n      string[] memory emptyStringList;\n      address[] memory emptyAddressList;\n      Dates[dateIdCounter] = Date({\n          id: dateIdCounter,\n          state: DateStages.active,\n          messagesList: emptyStringList,\n          messagesListSender: emptyAddressList\n        }\n      );\n      Dates[dateIdCounter].messagesList.push(message);\n      Dates[dateIdCounter].messagesListSender.push(msg.sender);\n      Profiles[msg.sender].dates.push(dateIdCounter);\n      Profiles[datesAddress].dates.push(dateIdCounter);\n      dateIdCounter++;\n      emit dateCreated(Dates[dateIdCounter]);\n    }\n    function endDate(uint dateIdCounterIndex) public isActive() {\n        Dates[dateIdCounterIndex].state = DateStages.closed;\n        emit endDateSent(Dates[dateIdCounterIndex]);\n    }\n    function setDispute(address userAddress, uint dateIdCounterIndex) public isActive() haveDatedUser(userAddress, dateIdCounterIndex) {\n        Profiles[userAddress].disputeCount++;\n        // TODO add addresses to dispute for payout.\n        if(Profiles[userAddress].disputeCount >= disputeMaxCount) {\n            lockAccount(userAddress);\n        }\n        emit disputeSent(userAddress, Profiles[userAddress].disputeCount);\n    }\n    function lockAccount (address userAddress) private {\n        Profiles[userAddress].active = false;\n        // emit event\n    }\n    function deactivateAccount () public {\n        Profiles[msg.sender].active = false;\n        // emit event\n    }\n    function reactivateAccount () public canReactivateAccount(){\n        Profiles[msg.sender].active = true;\n        // emit event\n    }\n    function sendMessage(uint dateIndex, string memory message) public dateIsActive(dateIndex) messageLength(message) isActive() {\n        Dates[dateIndex].messagesList.push(message);\n        Dates[dateIndex].messagesListSender.push(msg.sender);\n        emit messageSent(Dates[dateIndex]);\n    }\n    function getDate(uint dateIndex) external view returns (Date memory){\n        return Dates[dateIndex];\n    }\n    function getMessage(uint dateIndex, uint messageIndex) external view returns (string memory, address) {\n        return (Dates[dateIndex].messagesList[messageIndex], Dates[dateIndex].messagesListSender[messageIndex]);\n    }\n    function getMessages(uint dateIndex) public view returns (string[] memory, address[] memory) {\n        return (Dates[dateIndex].messagesList, Dates[dateIndex].messagesListSender);\n    }\n    function getProfile(address profileAddress) external view returns (Profile memory){\n        return Profiles[profileAddress];\n    }\n    // one blind date token TODO - work out the tokenomics.\n    // joiningFee $1 = dispute return to each person 30% / 3.\n    // 10% goes to platform (use to help protect users / raise awareness).\n    // charity DAO.\n    function joiningFee() public payable {\n       require(msg.value >= 1 ether);\n       // balances[msg.sender] += msg.value;\n    }\n\n    // function pause() public onlyRole(PAUSER_ROLE) {\n    //     _pause();\n    // }\n\n    // function unpause() public onlyRole(PAUSER_ROLE) {\n    //     _unpause();\n    // }\n\n    // function _beforeTokenTransfer(address from, address to, uint256 amount)\n    //     internal\n    //     whenNotPaused\n    //     override\n    // {\n    //     super._beforeTokenTransfer(from, to, amount);\n    // }\n}\n",
  "sourcePath": "/Users/nicktaras/Documents/github/blockchain-developer-bootcamp-final-project/contracts/BlindDate.sol",
  "compiler": {
    "name": "solc",
    "version": "0.8.0+commit.c7dfd78e.Emscripten.clang"
  },
  "schemaVersion": "3.4.3",
  "updatedAt": "2021-11-28T11:32:48.358Z",
  "networkType": "ethereum",
  "devdoc": {
    "kind": "dev",
    "methods": {
      "allowance(address,address)": {
        "details": "See {IERC20-allowance}."
      },
      "approve(address,uint256)": {
        "details": "See {IERC20-approve}. Requirements: - `spender` cannot be the zero address."
      },
      "balanceOf(address)": {
        "details": "See {IERC20-balanceOf}."
      },
      "decimals()": {
        "details": "Returns the number of decimals used to get its user representation. For example, if `decimals` equals `2`, a balance of `505` tokens should be displayed to a user as `5.05` (`505 / 10 ** 2`). Tokens usually opt for a value of 18, imitating the relationship between Ether and Wei. This is the value {ERC20} uses, unless this function is overridden; NOTE: This information is only used for _display_ purposes: it in no way affects any of the arithmetic of the contract, including {IERC20-balanceOf} and {IERC20-transfer}."
      },
      "decreaseAllowance(address,uint256)": {
        "details": "Atomically decreases the allowance granted to `spender` by the caller. This is an alternative to {approve} that can be used as a mitigation for problems described in {IERC20-approve}. Emits an {Approval} event indicating the updated allowance. Requirements: - `spender` cannot be the zero address. - `spender` must have allowance for the caller of at least `subtractedValue`."
      },
      "increaseAllowance(address,uint256)": {
        "details": "Atomically increases the allowance granted to `spender` by the caller. This is an alternative to {approve} that can be used as a mitigation for problems described in {IERC20-approve}. Emits an {Approval} event indicating the updated allowance. Requirements: - `spender` cannot be the zero address."
      },
      "name()": {
        "details": "Returns the name of the token."
      },
      "symbol()": {
        "details": "Returns the symbol of the token, usually a shorter version of the name."
      },
      "totalSupply()": {
        "details": "See {IERC20-totalSupply}."
      },
      "transfer(address,uint256)": {
        "details": "See {IERC20-transfer}. Requirements: - `recipient` cannot be the zero address. - the caller must have a balance of at least `amount`."
      },
      "transferFrom(address,address,uint256)": {
        "details": "See {IERC20-transferFrom}. Emits an {Approval} event indicating the updated allowance. This is not required by the EIP. See the note at the beginning of {ERC20}. Requirements: - `sender` and `recipient` cannot be the zero address. - `sender` must have a balance of at least `amount`. - the caller must have allowance for ``sender``'s tokens of at least `amount`."
      }
    },
    "version": 1
  },
  "userdoc": {
    "kind": "user",
    "methods": {},
    "version": 1
  }
}